{
  "contractName": "OwnableToken",
  "abi": [
    {
      "constant": false,
      "inputs": [
        {
          "name": "_new_owner",
          "type": "address"
        }
      ],
      "name": "changeOwner",
      "outputs": [],
      "payable": true,
      "stateMutability": "payable",
      "type": "function"
    },
    {
      "inputs": [],
      "payable": true,
      "stateMutability": "payable",
      "type": "constructor"
    }
  ],
  "bytecode": "0x6060604052336000806101000a81548173ffffffffffffffffffffffffffffffffffffffff021916908373ffffffffffffffffffffffffffffffffffffffff16021790555061017a806100536000396000f300606060405260043610610041576000357c0100000000000000000000000000000000000000000000000000000000900463ffffffff168063a6f9dae114610046575b600080fd5b610072600480803573ffffffffffffffffffffffffffffffffffffffff16906020019091905050610074565b005b3373ffffffffffffffffffffffffffffffffffffffff166000809054906101000a900473ffffffffffffffffffffffffffffffffffffffff1673ffffffffffffffffffffffffffffffffffffffff161415156100cf57600080fd5b600073ffffffffffffffffffffffffffffffffffffffff168173ffffffffffffffffffffffffffffffffffffffff161415151561010b57600080fd5b806000806101000a81548173ffffffffffffffffffffffffffffffffffffffff021916908373ffffffffffffffffffffffffffffffffffffffff160217905550505600a165627a7a7230582077208ec239318e50afbfa2d76bb3b7b7a1d51402e1106888f5098834f195ea440029",
  "source": "pragma solidity ^0.4.18;\r\n\r\n/* Owner setter */\r\ncontract OwnableToken\r\n{\r\n    address owner;\r\n\r\n    modifier onlyOwner() {\r\n        require(owner == msg.sender);\r\n        _;\r\n    }\r\n\r\n    function OwnableToken() public payable {\r\n        owner = msg.sender;\r\n    }\r\n\r\n    function changeOwner(address _new_owner) payable public onlyOwner {\r\n        require(_new_owner != address(0));\r\n        owner = _new_owner;\r\n    }\r\n}\r\n\r\n/**\r\n * Abstract contract for the full ERC 20 Token standard\r\n * https://github.com/ethereum/EIPs/issues/20\r\n */\r\ncontract ERC20I\r\n{\r\n    uint256 public totalSupply;\r\n\r\n    function balanceOf(address _owner) public view returns (uint256 balance);\r\n    function transfer(address _to, uint256 _value) public returns (bool success);\r\n    function transferFrom(address _from, address _to, uint256 _value) public returns (bool success);\r\n    function approve(address _spender, uint256 _value) public returns (bool success);\r\n    function allowance(address _owner, address _spender) public view returns (uint256 remaining);\r\n\r\n    event Transfer(address indexed _from, address indexed _to, uint256 _value);\r\n    event Approval(address indexed _owner, address indexed _spender, uint256 _value);\r\n}\r\n\r\n/* ERC 20 Token implementation */\r\ncontract ERC20 is ERC20I {\r\n\r\n    uint256 constant MAX_UINT256 = 2**256 - 1;\r\n\r\n    mapping (address => uint256) balances;\r\n    mapping (address => mapping (address => uint256)) allowed;\r\n\r\n    function transfer(address _to, uint256 _value) public\r\n        returns (bool success)\r\n    {\r\n        require(balances[msg.sender] >= _value);\r\n        balances[msg.sender] -= _value;\r\n        balances[_to] += _value;\r\n        Transfer(msg.sender, _to, _value);\r\n        return true;\r\n    }\r\n\r\n    function transferFrom(address _from, address _to, uint256 _value) public\r\n        returns (bool success)\r\n    {\r\n        uint256 allowance = allowed[_from][msg.sender];\r\n        require(balances[_from] >= _value && allowance >= _value);\r\n        balances[_to] += _value;\r\n        balances[_from] -= _value;\r\n        if (allowance < MAX_UINT256) {\r\n            allowed[_from][msg.sender] -= _value;\r\n        }\r\n        Transfer(_from, _to, _value);\r\n        return true;\r\n    }\r\n\r\n    function balanceOf(address _owner) view public\r\n        returns (uint256 balance)\r\n    {\r\n        return balances[_owner];\r\n    }\r\n\r\n    function approve(address _spender, uint256 _value) public\r\n        returns (bool success)\r\n    {\r\n        allowed[msg.sender][_spender] = _value;\r\n        Approval(msg.sender, _spender, _value);\r\n        return true;\r\n    }\r\n\r\n    function allowance(address _owner, address _spender) view public\r\n        returns (uint256 remaining)\r\n    {\r\n        return allowed[_owner][_spender];\r\n    }\r\n}\r\n\r\n/* airdopable promo smart contract */\r\ncontract ANtokContractAirdrop is ERC20, OwnableToken\r\n{\r\n    event Wasted(address to, uint256 value, uint256 date);  // Wasted(_to, _amount, now);\r\n\r\n    string public version = '1.2'; //Just an arbitrary versioning scheme.\r\n\r\n    uint8  public decimals;\r\n    string public name;\r\n    string public symbol;  //An identifier: eg SBX length 6 symbols max\r\n\r\n    uint256 public paySize = 1 * 10 ** 18;  // show size of payment in mass transfer\r\n    uint256 public holdersCount;\r\n    uint256 public tokensSpent;\r\n\r\n    mapping (address => bool) bounty; // show who got bounty\r\n\r\n    /* Autoconstructor */\r\n    function ANtokContractAirdrop() public payable {\r\n        decimals = 18;  // Amount of decimals for display purposes\r\n        name = \"ALFA NTOK\";  // Set the name for display purposes\r\n        symbol = \"аNTOK\";  // Set the symbol for display purposes\r\n        balances[msg.sender] = 20180000 * 10 ** uint(decimals); // Give the creator promo tokens (100000 for example)\r\n        balances[this] = 50000 * 10 ** uint(decimals); // Stay some tokens for bounty from contract\r\n        totalSupply = balances[msg.sender] + balances[this]; // Update total supply (100000 for example)\r\n    }\r\n\r\n    /**\r\n     * @dev notify owners about their balances was in promo action.\r\n     * @param _holders addresses of the owners to be notified\r\n     */\r\n    function massTransfer(address [] _holders) public onlyOwner {\r\n\r\n        uint256 count = _holders.length;\r\n        assert(paySize * count <= balanceOf(msg.sender));\r\n        for (uint256 i = 0; i < count; i++) {\r\n            transfer(_holders [i], paySize);\r\n        }\r\n        Wasted(owner, tokensSpent, now);\r\n    }\r\n\r\n    /**\r\n    * @dev withdraw tokens from the contract.\r\n    */\r\n    function withdrawTo(address _recipient, uint256 _amount) public onlyOwner {\r\n        this.transfer(_recipient, _amount);\r\n    }\r\n\r\n    /**\r\n    * @dev withdraw tokens from the contract.\r\n    */\r\n    function setPaySize(uint256 _value) public onlyOwner\r\n        returns (uint256)\r\n    {\r\n        paySize = _value;\r\n        return paySize;\r\n    }\r\n\r\n    /**\r\n    * @dev withdraw tokens as bounty.\r\n    */\r\n    function withdrawBounty(address _recipient, uint256 _amount) internal {\r\n        this.transfer(_recipient, _amount);\r\n    }\r\n\r\n    /**\r\n    * @dev get bounty for the people.\r\n    */\r\n    function getBounty() public payable {\r\n        require(bounty[msg.sender] != true); // 1 address = 1 token\r\n        require(balances[this] != 0);\r\n        bounty[msg.sender] = true;\r\n        withdrawBounty(msg.sender, 1 * 10 ** uint(decimals));\r\n    }\r\n\r\n    /**\r\n    * @dev is bounty address.\r\n    */\r\n    function bountyOf(address _bountist) view public\r\n        returns (bool thanked)\r\n    {\r\n        return bounty[_bountist];\r\n    }\r\n\r\n    function() public {\r\n        revert(); // revert all incoming transactions\r\n    }\r\n}\r\n",
  "sourcePath": "C:\\Users\\pirno\\Desktop\\Ntex-promo-private\\contracts\\ANtokContractAirdrop.sol",
  "compiler": {
    "name": "solc",
    "version": "0.4.18+commit.9cf6e910.Emscripten.clang"
  },
  "schemaVersion": "1.0.1",
  "updatedAt": "2017-12-26T20:32:19.474Z"
}